{
  "_format": "hh-sol-artifact-1",
  "contractName": "CarbonCredit",
  "sourceName": "contracts/CarbonCredit.sol",
  "abi": [
    {
      "inputs": [],
      "stateMutability": "nonpayable",
      "type": "constructor"
    },
    {
      "inputs": [
        {
          "internalType": "address",
          "name": "spender",
          "type": "address"
        },
        {
          "internalType": "uint256",
          "name": "allowance",
          "type": "uint256"
        },
        {
          "internalType": "uint256",
          "name": "needed",
          "type": "uint256"
        }
      ],
      "name": "ERC20InsufficientAllowance",
      "type": "error"
    },
    {
      "inputs": [
        {
          "internalType": "address",
          "name": "sender",
          "type": "address"
        },
        {
          "internalType": "uint256",
          "name": "balance",
          "type": "uint256"
        },
        {
          "internalType": "uint256",
          "name": "needed",
          "type": "uint256"
        }
      ],
      "name": "ERC20InsufficientBalance",
      "type": "error"
    },
    {
      "inputs": [
        {
          "internalType": "address",
          "name": "approver",
          "type": "address"
        }
      ],
      "name": "ERC20InvalidApprover",
      "type": "error"
    },
    {
      "inputs": [
        {
          "internalType": "address",
          "name": "receiver",
          "type": "address"
        }
      ],
      "name": "ERC20InvalidReceiver",
      "type": "error"
    },
    {
      "inputs": [
        {
          "internalType": "address",
          "name": "sender",
          "type": "address"
        }
      ],
      "name": "ERC20InvalidSender",
      "type": "error"
    },
    {
      "inputs": [
        {
          "internalType": "address",
          "name": "spender",
          "type": "address"
        }
      ],
      "name": "ERC20InvalidSpender",
      "type": "error"
    },
    {
      "inputs": [
        {
          "internalType": "address",
          "name": "owner",
          "type": "address"
        }
      ],
      "name": "OwnableInvalidOwner",
      "type": "error"
    },
    {
      "inputs": [
        {
          "internalType": "address",
          "name": "account",
          "type": "address"
        }
      ],
      "name": "OwnableUnauthorizedAccount",
      "type": "error"
    },
    {
      "anonymous": false,
      "inputs": [
        {
          "indexed": true,
          "internalType": "address",
          "name": "owner",
          "type": "address"
        },
        {
          "indexed": true,
          "internalType": "address",
          "name": "spender",
          "type": "address"
        },
        {
          "indexed": false,
          "internalType": "uint256",
          "name": "value",
          "type": "uint256"
        }
      ],
      "name": "Approval",
      "type": "event"
    },
    {
      "anonymous": false,
      "inputs": [
        {
          "indexed": true,
          "internalType": "address",
          "name": "previousOwner",
          "type": "address"
        },
        {
          "indexed": true,
          "internalType": "address",
          "name": "newOwner",
          "type": "address"
        }
      ],
      "name": "OwnershipTransferred",
      "type": "event"
    },
    {
      "anonymous": false,
      "inputs": [
        {
          "indexed": true,
          "internalType": "address",
          "name": "from",
          "type": "address"
        },
        {
          "indexed": true,
          "internalType": "address",
          "name": "to",
          "type": "address"
        },
        {
          "indexed": false,
          "internalType": "uint256",
          "name": "value",
          "type": "uint256"
        }
      ],
      "name": "Transfer",
      "type": "event"
    },
    {
      "inputs": [
        {
          "internalType": "address",
          "name": "owner",
          "type": "address"
        },
        {
          "internalType": "address",
          "name": "spender",
          "type": "address"
        }
      ],
      "name": "allowance",
      "outputs": [
        {
          "internalType": "uint256",
          "name": "",
          "type": "uint256"
        }
      ],
      "stateMutability": "view",
      "type": "function"
    },
    {
      "inputs": [
        {
          "internalType": "address",
          "name": "spender",
          "type": "address"
        },
        {
          "internalType": "uint256",
          "name": "value",
          "type": "uint256"
        }
      ],
      "name": "approve",
      "outputs": [
        {
          "internalType": "bool",
          "name": "",
          "type": "bool"
        }
      ],
      "stateMutability": "nonpayable",
      "type": "function"
    },
    {
      "inputs": [
        {
          "internalType": "address",
          "name": "account",
          "type": "address"
        }
      ],
      "name": "balanceOf",
      "outputs": [
        {
          "internalType": "uint256",
          "name": "",
          "type": "uint256"
        }
      ],
      "stateMutability": "view",
      "type": "function"
    },
    {
      "inputs": [
        {
          "internalType": "uint256",
          "name": "amount",
          "type": "uint256"
        }
      ],
      "name": "burnCredits",
      "outputs": [],
      "stateMutability": "nonpayable",
      "type": "function"
    },
    {
      "inputs": [],
      "name": "decimals",
      "outputs": [
        {
          "internalType": "uint8",
          "name": "",
          "type": "uint8"
        }
      ],
      "stateMutability": "view",
      "type": "function"
    },
    {
      "inputs": [
        {
          "internalType": "address",
          "name": "user",
          "type": "address"
        },
        {
          "internalType": "uint256",
          "name": "amount",
          "type": "uint256"
        }
      ],
      "name": "mintCredits",
      "outputs": [],
      "stateMutability": "nonpayable",
      "type": "function"
    },
    {
      "inputs": [],
      "name": "name",
      "outputs": [
        {
          "internalType": "string",
          "name": "",
          "type": "string"
        }
      ],
      "stateMutability": "view",
      "type": "function"
    },
    {
      "inputs": [],
      "name": "owner",
      "outputs": [
        {
          "internalType": "address",
          "name": "",
          "type": "address"
        }
      ],
      "stateMutability": "view",
      "type": "function"
    },
    {
      "inputs": [],
      "name": "renounceOwnership",
      "outputs": [],
      "stateMutability": "nonpayable",
      "type": "function"
    },
    {
      "inputs": [],
      "name": "symbol",
      "outputs": [
        {
          "internalType": "string",
          "name": "",
          "type": "string"
        }
      ],
      "stateMutability": "view",
      "type": "function"
    },
    {
      "inputs": [],
      "name": "totalSupply",
      "outputs": [
        {
          "internalType": "uint256",
          "name": "",
          "type": "uint256"
        }
      ],
      "stateMutability": "view",
      "type": "function"
    },
    {
      "inputs": [
        {
          "internalType": "address",
          "name": "to",
          "type": "address"
        },
        {
          "internalType": "uint256",
          "name": "value",
          "type": "uint256"
        }
      ],
      "name": "transfer",
      "outputs": [
        {
          "internalType": "bool",
          "name": "",
          "type": "bool"
        }
      ],
      "stateMutability": "nonpayable",
      "type": "function"
    },
    {
      "inputs": [
        {
          "internalType": "address",
          "name": "to",
          "type": "address"
        },
        {
          "internalType": "uint256",
          "name": "amount",
          "type": "uint256"
        }
      ],
      "name": "transferCredits",
      "outputs": [
        {
          "internalType": "bool",
          "name": "",
          "type": "bool"
        }
      ],
      "stateMutability": "nonpayable",
      "type": "function"
    },
    {
      "inputs": [
        {
          "internalType": "address",
          "name": "from",
          "type": "address"
        },
        {
          "internalType": "address",
          "name": "to",
          "type": "address"
        },
        {
          "internalType": "uint256",
          "name": "value",
          "type": "uint256"
        }
      ],
      "name": "transferFrom",
      "outputs": [
        {
          "internalType": "bool",
          "name": "",
          "type": "bool"
        }
      ],
      "stateMutability": "nonpayable",
      "type": "function"
    },
    {
      "inputs": [
        {
          "internalType": "address",
          "name": "newOwner",
          "type": "address"
        }
      ],
      "name": "transferOwnership",
      "outputs": [],
      "stateMutability": "nonpayable",
      "type": "function"
    }
  ],
  "bytecode": "0x608060405234801562000010575f80fd5b50336040518060400160405280601281526020017f426c756520436172626f6e2043726564697400000000000000000000000000008152506040518060400160405280600381526020017f424343000000000000000000000000000000000000000000000000000000000081525081600390816200008f919062000456565b508060049081620000a1919062000456565b5050505f73ffffffffffffffffffffffffffffffffffffffff168173ffffffffffffffffffffffffffffffffffffffff160362000117575f6040517f1e4fbdf70000000000000000000000000000000000000000000000000000000081526004016200010e91906200057d565b60405180910390fd5b62000128816200012f60201b60201c565b5062000598565b5f60055f9054906101000a900473ffffffffffffffffffffffffffffffffffffffff1690508160055f6101000a81548173ffffffffffffffffffffffffffffffffffffffff021916908373ffffffffffffffffffffffffffffffffffffffff1602179055508173ffffffffffffffffffffffffffffffffffffffff168173ffffffffffffffffffffffffffffffffffffffff167f8be0079c531659141344cd1fd0a4f28419497f9722a3daafe3b4186f6b6457e060405160405180910390a35050565b5f81519050919050565b7f4e487b71000000000000000000000000000000000000000000000000000000005f52604160045260245ffd5b7f4e487b71000000000000000000000000000000000000000000000000000000005f52602260045260245ffd5b5f60028204905060018216806200026e57607f821691505b60208210810362000284576200028362000229565b5b50919050565b5f819050815f5260205f209050919050565b5f6020601f8301049050919050565b5f82821b905092915050565b5f60088302620002e87fffffffffffffffffffffffffffffffffffffffffffffffffffffffffffffffff82620002ab565b620002f48683620002ab565b95508019841693508086168417925050509392505050565b5f819050919050565b5f819050919050565b5f6200033e6200033862000332846200030c565b62000315565b6200030c565b9050919050565b5f819050919050565b62000359836200031e565b62000371620003688262000345565b848454620002b7565b825550505050565b5f90565b6200038762000379565b620003948184846200034e565b505050565b5b81811015620003bb57620003af5f826200037d565b6001810190506200039a565b5050565b601f8211156200040a57620003d4816200028a565b620003df846200029c565b81016020851015620003ef578190505b62000407620003fe856200029c565b83018262000399565b50505b505050565b5f82821c905092915050565b5f6200042c5f19846008026200040f565b1980831691505092915050565b5f6200044683836200041b565b9150826002028217905092915050565b6200046182620001f2565b67ffffffffffffffff8111156200047d576200047c620001fc565b5b62000489825462000256565b62000496828285620003bf565b5f60209050601f831160018114620004cc575f8415620004b7578287015190505b620004c3858262000439565b86555062000532565b601f198416620004dc866200028a565b5f5b828110156200050557848901518255600182019150602085019450602081019050620004de565b8683101562000525578489015162000521601f8916826200041b565b8355505b6001600288020188555050505b505050505050565b5f73ffffffffffffffffffffffffffffffffffffffff82169050919050565b5f62000565826200053a565b9050919050565b620005778162000559565b82525050565b5f602082019050620005925f8301846200056c565b92915050565b61148680620005a65f395ff3fe608060405234801561000f575f80fd5b50600436106100f3575f3560e01c8063715018a611610095578063a9059cbb11610064578063a9059cbb1461025f578063dd62ed3e1461028f578063f2fde38b146102bf578063fb97033e146102db576100f3565b8063715018a6146101fd5780638da5cb5b1461020757806395d89b41146102255780639bae874714610243576100f3565b806323b872dd116100d157806323b872dd14610163578063313ce567146101935780634aedb6d3146101b157806370a08231146101cd576100f3565b806306fdde03146100f7578063095ea7b31461011557806318160ddd14610145575b5f80fd5b6100ff61030b565b60405161010c9190610f1a565b60405180910390f35b61012f600480360381019061012a9190610fcb565b61039b565b60405161013c9190611023565b60405180910390f35b61014d6103bd565b60405161015a919061104b565b60405180910390f35b61017d60048036038101906101789190611064565b6103c6565b60405161018a9190611023565b60405180910390f35b61019b6103f4565b6040516101a891906110cf565b60405180910390f35b6101cb60048036038101906101c691906110e8565b6103fc565b005b6101e760048036038101906101e29190611113565b610427565b6040516101f4919061104b565b60405180910390f35b61020561046c565b005b61020f61047f565b60405161021c919061114d565b60405180910390f35b61022d6104a7565b60405161023a9190610f1a565b60405180910390f35b61025d60048036038101906102589190610fcb565b610537565b005b61027960048036038101906102749190610fcb565b61056b565b6040516102869190611023565b60405180910390f35b6102a960048036038101906102a49190611166565b61058d565b6040516102b6919061104b565b60405180910390f35b6102d960048036038101906102d49190611113565b61060f565b005b6102f560048036038101906102f09190610fcb565b610693565b6040516103029190611023565b60405180910390f35b60606003805461031a906111d1565b80601f0160208091040260200160405190810160405280929190818152602001828054610346906111d1565b80156103915780601f1061036857610100808354040283529160200191610391565b820191905f5260205f20905b81548152906001019060200180831161037457829003601f168201915b5050505050905090565b5f806103a56106c4565b90506103b28185856106cb565b600191505092915050565b5f600254905090565b5f806103d06106c4565b90506103dd8582856106dd565b6103e8858585610770565b60019150509392505050565b5f6012905090565b610424336104086103f4565b600a610414919061135d565b8361041f91906113a7565b610860565b50565b5f805f8373ffffffffffffffffffffffffffffffffffffffff1673ffffffffffffffffffffffffffffffffffffffff1681526020019081526020015f20549050919050565b6104746108df565b61047d5f610966565b565b5f60055f9054906101000a900473ffffffffffffffffffffffffffffffffffffffff16905090565b6060600480546104b6906111d1565b80601f01602080910402602001604051908101604052809291908181526020018280546104e2906111d1565b801561052d5780601f106105045761010080835404028352916020019161052d565b820191905f5260205f20905b81548152906001019060200180831161051057829003601f168201915b5050505050905090565b61053f6108df565b6105678261054b6103f4565b600a610557919061135d565b8361056291906113a7565b610a29565b5050565b5f806105756106c4565b9050610582818585610770565b600191505092915050565b5f60015f8473ffffffffffffffffffffffffffffffffffffffff1673ffffffffffffffffffffffffffffffffffffffff1681526020019081526020015f205f8373ffffffffffffffffffffffffffffffffffffffff1673ffffffffffffffffffffffffffffffffffffffff1681526020019081526020015f2054905092915050565b6106176108df565b5f73ffffffffffffffffffffffffffffffffffffffff168173ffffffffffffffffffffffffffffffffffffffff1603610687575f6040517f1e4fbdf700000000000000000000000000000000000000000000000000000000815260040161067e919061114d565b60405180910390fd5b61069081610966565b50565b5f6106bc836106a06103f4565b600a6106ac919061135d565b846106b791906113a7565b61056b565b905092915050565b5f33905090565b6106d88383836001610aa8565b505050565b5f6106e8848461058d565b90507fffffffffffffffffffffffffffffffffffffffffffffffffffffffffffffffff81101561076a578181101561075b578281836040517ffb8f41b2000000000000000000000000000000000000000000000000000000008152600401610752939291906113e8565b60405180910390fd5b61076984848484035f610aa8565b5b50505050565b5f73ffffffffffffffffffffffffffffffffffffffff168373ffffffffffffffffffffffffffffffffffffffff16036107e0575f6040517f96c6fd1e0000000000000000000000000000000000000000000000000000000081526004016107d7919061114d565b60405180910390fd5b5f73ffffffffffffffffffffffffffffffffffffffff168273ffffffffffffffffffffffffffffffffffffffff1603610850575f6040517fec442f05000000000000000000000000000000000000000000000000000000008152600401610847919061114d565b60405180910390fd5b61085b838383610c77565b505050565b5f73ffffffffffffffffffffffffffffffffffffffff168273ffffffffffffffffffffffffffffffffffffffff16036108d0575f6040517f96c6fd1e0000000000000000000000000000000000000000000000000000000081526004016108c7919061114d565b60405180910390fd5b6108db825f83610c77565b5050565b6108e76106c4565b73ffffffffffffffffffffffffffffffffffffffff1661090561047f565b73ffffffffffffffffffffffffffffffffffffffff1614610964576109286106c4565b6040517f118cdaa700000000000000000000000000000000000000000000000000000000815260040161095b919061114d565b60405180910390fd5b565b5f60055f9054906101000a900473ffffffffffffffffffffffffffffffffffffffff1690508160055f6101000a81548173ffffffffffffffffffffffffffffffffffffffff021916908373ffffffffffffffffffffffffffffffffffffffff1602179055508173ffffffffffffffffffffffffffffffffffffffff168173ffffffffffffffffffffffffffffffffffffffff167f8be0079c531659141344cd1fd0a4f28419497f9722a3daafe3b4186f6b6457e060405160405180910390a35050565b5f73ffffffffffffffffffffffffffffffffffffffff168273ffffffffffffffffffffffffffffffffffffffff1603610a99575f6040517fec442f05000000000000000000000000000000000000000000000000000000008152600401610a90919061114d565b60405180910390fd5b610aa45f8383610c77565b5050565b5f73ffffffffffffffffffffffffffffffffffffffff168473ffffffffffffffffffffffffffffffffffffffff1603610b18575f6040517fe602df05000000000000000000000000000000000000000000000000000000008152600401610b0f919061114d565b60405180910390fd5b5f73ffffffffffffffffffffffffffffffffffffffff168373ffffffffffffffffffffffffffffffffffffffff1603610b88575f6040517f94280d62000000000000000000000000000000000000000000000000000000008152600401610b7f919061114d565b60405180910390fd5b8160015f8673ffffffffffffffffffffffffffffffffffffffff1673ffffffffffffffffffffffffffffffffffffffff1681526020019081526020015f205f8573ffffffffffffffffffffffffffffffffffffffff1673ffffffffffffffffffffffffffffffffffffffff1681526020019081526020015f20819055508015610c71578273ffffffffffffffffffffffffffffffffffffffff168473ffffffffffffffffffffffffffffffffffffffff167f8c5be1e5ebec7d5bd14f71427d1e84f3dd0314c0f7b2291e5b200ac8c7c3b92584604051610c68919061104b565b60405180910390a35b50505050565b5f73ffffffffffffffffffffffffffffffffffffffff168373ffffffffffffffffffffffffffffffffffffffff1603610cc7578060025f828254610cbb919061141d565b92505081905550610d95565b5f805f8573ffffffffffffffffffffffffffffffffffffffff1673ffffffffffffffffffffffffffffffffffffffff1681526020019081526020015f2054905081811015610d50578381836040517fe450d38c000000000000000000000000000000000000000000000000000000008152600401610d47939291906113e8565b60405180910390fd5b8181035f808673ffffffffffffffffffffffffffffffffffffffff1673ffffffffffffffffffffffffffffffffffffffff1681526020019081526020015f2081905550505b5f73ffffffffffffffffffffffffffffffffffffffff168273ffffffffffffffffffffffffffffffffffffffff1603610ddc578060025f8282540392505081905550610e26565b805f808473ffffffffffffffffffffffffffffffffffffffff1673ffffffffffffffffffffffffffffffffffffffff1681526020019081526020015f205f82825401925050819055505b8173ffffffffffffffffffffffffffffffffffffffff168373ffffffffffffffffffffffffffffffffffffffff167fddf252ad1be2c89b69c2b068fc378daa952ba7f163c4a11628f55a4df523b3ef83604051610e83919061104b565b60405180910390a3505050565b5f81519050919050565b5f82825260208201905092915050565b5f5b83811015610ec7578082015181840152602081019050610eac565b5f8484015250505050565b5f601f19601f8301169050919050565b5f610eec82610e90565b610ef68185610e9a565b9350610f06818560208601610eaa565b610f0f81610ed2565b840191505092915050565b5f6020820190508181035f830152610f328184610ee2565b905092915050565b5f80fd5b5f73ffffffffffffffffffffffffffffffffffffffff82169050919050565b5f610f6782610f3e565b9050919050565b610f7781610f5d565b8114610f81575f80fd5b50565b5f81359050610f9281610f6e565b92915050565b5f819050919050565b610faa81610f98565b8114610fb4575f80fd5b50565b5f81359050610fc581610fa1565b92915050565b5f8060408385031215610fe157610fe0610f3a565b5b5f610fee85828601610f84565b9250506020610fff85828601610fb7565b9150509250929050565b5f8115159050919050565b61101d81611009565b82525050565b5f6020820190506110365f830184611014565b92915050565b61104581610f98565b82525050565b5f60208201905061105e5f83018461103c565b92915050565b5f805f6060848603121561107b5761107a610f3a565b5b5f61108886828701610f84565b935050602061109986828701610f84565b92505060406110aa86828701610fb7565b9150509250925092565b5f60ff82169050919050565b6110c9816110b4565b82525050565b5f6020820190506110e25f8301846110c0565b92915050565b5f602082840312156110fd576110fc610f3a565b5b5f61110a84828501610fb7565b91505092915050565b5f6020828403121561112857611127610f3a565b5b5f61113584828501610f84565b91505092915050565b61114781610f5d565b82525050565b5f6020820190506111605f83018461113e565b92915050565b5f806040838503121561117c5761117b610f3a565b5b5f61118985828601610f84565b925050602061119a85828601610f84565b9150509250929050565b7f4e487b71000000000000000000000000000000000000000000000000000000005f52602260045260245ffd5b5f60028204905060018216806111e857607f821691505b6020821081036111fb576111fa6111a4565b5b50919050565b7f4e487b71000000000000000000000000000000000000000000000000000000005f52601160045260245ffd5b5f8160011c9050919050565b5f808291508390505b60018511156112835780860481111561125f5761125e611201565b5b600185161561126e5780820291505b808102905061127c8561122e565b9450611243565b94509492505050565b5f8261129b5760019050611356565b816112a8575f9050611356565b81600181146112be57600281146112c8576112f7565b6001915050611356565b60ff8411156112da576112d9611201565b5b8360020a9150848211156112f1576112f0611201565b5b50611356565b5060208310610133831016604e8410600b841016171561132c5782820a90508381111561132757611326611201565b5b611356565b611339848484600161123a565b925090508184048111156113505761134f611201565b5b81810290505b9392505050565b5f61136782610f98565b9150611372836110b4565b925061139f7fffffffffffffffffffffffffffffffffffffffffffffffffffffffffffffffff848461128c565b905092915050565b5f6113b182610f98565b91506113bc83610f98565b92508282026113ca81610f98565b915082820484148315176113e1576113e0611201565b5b5092915050565b5f6060820190506113fb5f83018661113e565b611408602083018561103c565b611415604083018461103c565b949350505050565b5f61142782610f98565b915061143283610f98565b925082820190508082111561144a57611449611201565b5b9291505056fea26469706673582212201690d14c4649676fb1cc310e61c1dfc082cecc7206fba2750995055ee1e3826864736f6c63430008180033",
  "linkReferences": {},
  "deployedLinkReferences": {}
}