{
  "_format": "hh-sol-artifact-1",
  "contractName": "ProjectNFT",
  "sourceName": "contracts/ProjectNFT.sol",
  "abi": [
    {
      "inputs": [],
      "stateMutability": "nonpayable",
      "type": "constructor"
    },
    {
      "inputs": [
        {
          "internalType": "address",
          "name": "sender",
          "type": "address"
        },
        {
          "internalType": "uint256",
          "name": "tokenId",
          "type": "uint256"
        },
        {
          "internalType": "address",
          "name": "owner",
          "type": "address"
        }
      ],
      "name": "ERC721IncorrectOwner",
      "type": "error"
    },
    {
      "inputs": [
        {
          "internalType": "address",
          "name": "operator",
          "type": "address"
        },
        {
          "internalType": "uint256",
          "name": "tokenId",
          "type": "uint256"
        }
      ],
      "name": "ERC721InsufficientApproval",
      "type": "error"
    },
    {
      "inputs": [
        {
          "internalType": "address",
          "name": "approver",
          "type": "address"
        }
      ],
      "name": "ERC721InvalidApprover",
      "type": "error"
    },
    {
      "inputs": [
        {
          "internalType": "address",
          "name": "operator",
          "type": "address"
        }
      ],
      "name": "ERC721InvalidOperator",
      "type": "error"
    },
    {
      "inputs": [
        {
          "internalType": "address",
          "name": "owner",
          "type": "address"
        }
      ],
      "name": "ERC721InvalidOwner",
      "type": "error"
    },
    {
      "inputs": [
        {
          "internalType": "address",
          "name": "receiver",
          "type": "address"
        }
      ],
      "name": "ERC721InvalidReceiver",
      "type": "error"
    },
    {
      "inputs": [
        {
          "internalType": "address",
          "name": "sender",
          "type": "address"
        }
      ],
      "name": "ERC721InvalidSender",
      "type": "error"
    },
    {
      "inputs": [
        {
          "internalType": "uint256",
          "name": "tokenId",
          "type": "uint256"
        }
      ],
      "name": "ERC721NonexistentToken",
      "type": "error"
    },
    {
      "inputs": [
        {
          "internalType": "address",
          "name": "owner",
          "type": "address"
        }
      ],
      "name": "OwnableInvalidOwner",
      "type": "error"
    },
    {
      "inputs": [
        {
          "internalType": "address",
          "name": "account",
          "type": "address"
        }
      ],
      "name": "OwnableUnauthorizedAccount",
      "type": "error"
    },
    {
      "anonymous": false,
      "inputs": [
        {
          "indexed": true,
          "internalType": "address",
          "name": "owner",
          "type": "address"
        },
        {
          "indexed": true,
          "internalType": "address",
          "name": "approved",
          "type": "address"
        },
        {
          "indexed": true,
          "internalType": "uint256",
          "name": "tokenId",
          "type": "uint256"
        }
      ],
      "name": "Approval",
      "type": "event"
    },
    {
      "anonymous": false,
      "inputs": [
        {
          "indexed": true,
          "internalType": "address",
          "name": "owner",
          "type": "address"
        },
        {
          "indexed": true,
          "internalType": "address",
          "name": "operator",
          "type": "address"
        },
        {
          "indexed": false,
          "internalType": "bool",
          "name": "approved",
          "type": "bool"
        }
      ],
      "name": "ApprovalForAll",
      "type": "event"
    },
    {
      "anonymous": false,
      "inputs": [
        {
          "indexed": true,
          "internalType": "address",
          "name": "previousOwner",
          "type": "address"
        },
        {
          "indexed": true,
          "internalType": "address",
          "name": "newOwner",
          "type": "address"
        }
      ],
      "name": "OwnershipTransferred",
      "type": "event"
    },
    {
      "anonymous": false,
      "inputs": [
        {
          "indexed": true,
          "internalType": "address",
          "name": "from",
          "type": "address"
        },
        {
          "indexed": true,
          "internalType": "address",
          "name": "to",
          "type": "address"
        },
        {
          "indexed": true,
          "internalType": "uint256",
          "name": "tokenId",
          "type": "uint256"
        }
      ],
      "name": "Transfer",
      "type": "event"
    },
    {
      "inputs": [
        {
          "internalType": "address",
          "name": "to",
          "type": "address"
        },
        {
          "internalType": "uint256",
          "name": "tokenId",
          "type": "uint256"
        }
      ],
      "name": "approve",
      "outputs": [],
      "stateMutability": "nonpayable",
      "type": "function"
    },
    {
      "inputs": [
        {
          "internalType": "address",
          "name": "owner",
          "type": "address"
        }
      ],
      "name": "balanceOf",
      "outputs": [
        {
          "internalType": "uint256",
          "name": "",
          "type": "uint256"
        }
      ],
      "stateMutability": "view",
      "type": "function"
    },
    {
      "inputs": [
        {
          "internalType": "uint256",
          "name": "tokenId",
          "type": "uint256"
        }
      ],
      "name": "getApproved",
      "outputs": [
        {
          "internalType": "address",
          "name": "",
          "type": "address"
        }
      ],
      "stateMutability": "view",
      "type": "function"
    },
    {
      "inputs": [
        {
          "internalType": "address",
          "name": "owner",
          "type": "address"
        },
        {
          "internalType": "address",
          "name": "operator",
          "type": "address"
        }
      ],
      "name": "isApprovedForAll",
      "outputs": [
        {
          "internalType": "bool",
          "name": "",
          "type": "bool"
        }
      ],
      "stateMutability": "view",
      "type": "function"
    },
    {
      "inputs": [
        {
          "internalType": "uint256",
          "name": "",
          "type": "uint256"
        }
      ],
      "name": "metadataByToken",
      "outputs": [
        {
          "internalType": "string",
          "name": "plantationName",
          "type": "string"
        },
        {
          "internalType": "string",
          "name": "location",
          "type": "string"
        },
        {
          "internalType": "string",
          "name": "ipfsMetadata",
          "type": "string"
        },
        {
          "internalType": "uint256",
          "name": "carbonCredits",
          "type": "uint256"
        }
      ],
      "stateMutability": "view",
      "type": "function"
    },
    {
      "inputs": [
        {
          "internalType": "address",
          "name": "to",
          "type": "address"
        },
        {
          "internalType": "string",
          "name": "plantationName",
          "type": "string"
        },
        {
          "internalType": "string",
          "name": "location",
          "type": "string"
        },
        {
          "internalType": "string",
          "name": "ipfsMetadata",
          "type": "string"
        },
        {
          "internalType": "uint256",
          "name": "carbonCredits",
          "type": "uint256"
        }
      ],
      "name": "mintCertificate",
      "outputs": [
        {
          "internalType": "uint256",
          "name": "",
          "type": "uint256"
        }
      ],
      "stateMutability": "nonpayable",
      "type": "function"
    },
    {
      "inputs": [],
      "name": "name",
      "outputs": [
        {
          "internalType": "string",
          "name": "",
          "type": "string"
        }
      ],
      "stateMutability": "view",
      "type": "function"
    },
    {
      "inputs": [],
      "name": "nextTokenId",
      "outputs": [
        {
          "internalType": "uint256",
          "name": "",
          "type": "uint256"
        }
      ],
      "stateMutability": "view",
      "type": "function"
    },
    {
      "inputs": [],
      "name": "owner",
      "outputs": [
        {
          "internalType": "address",
          "name": "",
          "type": "address"
        }
      ],
      "stateMutability": "view",
      "type": "function"
    },
    {
      "inputs": [
        {
          "internalType": "uint256",
          "name": "tokenId",
          "type": "uint256"
        }
      ],
      "name": "ownerOf",
      "outputs": [
        {
          "internalType": "address",
          "name": "",
          "type": "address"
        }
      ],
      "stateMutability": "view",
      "type": "function"
    },
    {
      "inputs": [],
      "name": "renounceOwnership",
      "outputs": [],
      "stateMutability": "nonpayable",
      "type": "function"
    },
    {
      "inputs": [
        {
          "internalType": "address",
          "name": "from",
          "type": "address"
        },
        {
          "internalType": "address",
          "name": "to",
          "type": "address"
        },
        {
          "internalType": "uint256",
          "name": "tokenId",
          "type": "uint256"
        }
      ],
      "name": "safeTransferFrom",
      "outputs": [],
      "stateMutability": "nonpayable",
      "type": "function"
    },
    {
      "inputs": [
        {
          "internalType": "address",
          "name": "from",
          "type": "address"
        },
        {
          "internalType": "address",
          "name": "to",
          "type": "address"
        },
        {
          "internalType": "uint256",
          "name": "tokenId",
          "type": "uint256"
        },
        {
          "internalType": "bytes",
          "name": "data",
          "type": "bytes"
        }
      ],
      "name": "safeTransferFrom",
      "outputs": [],
      "stateMutability": "nonpayable",
      "type": "function"
    },
    {
      "inputs": [
        {
          "internalType": "address",
          "name": "operator",
          "type": "address"
        },
        {
          "internalType": "bool",
          "name": "approved",
          "type": "bool"
        }
      ],
      "name": "setApprovalForAll",
      "outputs": [],
      "stateMutability": "nonpayable",
      "type": "function"
    },
    {
      "inputs": [
        {
          "internalType": "bytes4",
          "name": "interfaceId",
          "type": "bytes4"
        }
      ],
      "name": "supportsInterface",
      "outputs": [
        {
          "internalType": "bool",
          "name": "",
          "type": "bool"
        }
      ],
      "stateMutability": "view",
      "type": "function"
    },
    {
      "inputs": [],
      "name": "symbol",
      "outputs": [
        {
          "internalType": "string",
          "name": "",
          "type": "string"
        }
      ],
      "stateMutability": "view",
      "type": "function"
    },
    {
      "inputs": [
        {
          "internalType": "uint256",
          "name": "tokenId",
          "type": "uint256"
        }
      ],
      "name": "tokenURI",
      "outputs": [
        {
          "internalType": "string",
          "name": "",
          "type": "string"
        }
      ],
      "stateMutability": "view",
      "type": "function"
    },
    {
      "inputs": [
        {
          "internalType": "address",
          "name": "from",
          "type": "address"
        },
        {
          "internalType": "address",
          "name": "to",
          "type": "address"
        },
        {
          "internalType": "uint256",
          "name": "tokenId",
          "type": "uint256"
        }
      ],
      "name": "transferFrom",
      "outputs": [],
      "stateMutability": "nonpayable",
      "type": "function"
    },
    {
      "inputs": [
        {
          "internalType": "address",
          "name": "newOwner",
          "type": "address"
        }
      ],
      "name": "transferOwnership",
      "outputs": [],
      "stateMutability": "nonpayable",
      "type": "function"
    }
  ],
  "bytecode": "0x608060405234801562000010575f80fd5b50336040518060400160405280601f81526020017f426c756520436172626f6e2050726f6a656374204365727469666963617465008152506040518060400160405280600481526020017f4243504300000000000000000000000000000000000000000000000000000000815250815f90816200008e919062000455565b508060019081620000a0919062000455565b5050505f73ffffffffffffffffffffffffffffffffffffffff168173ffffffffffffffffffffffffffffffffffffffff160362000116575f6040517f1e4fbdf70000000000000000000000000000000000000000000000000000000081526004016200010d91906200057c565b60405180910390fd5b62000127816200012e60201b60201c565b5062000597565b5f60065f9054906101000a900473ffffffffffffffffffffffffffffffffffffffff1690508160065f6101000a81548173ffffffffffffffffffffffffffffffffffffffff021916908373ffffffffffffffffffffffffffffffffffffffff1602179055508173ffffffffffffffffffffffffffffffffffffffff168173ffffffffffffffffffffffffffffffffffffffff167f8be0079c531659141344cd1fd0a4f28419497f9722a3daafe3b4186f6b6457e060405160405180910390a35050565b5f81519050919050565b7f4e487b71000000000000000000000000000000000000000000000000000000005f52604160045260245ffd5b7f4e487b71000000000000000000000000000000000000000000000000000000005f52602260045260245ffd5b5f60028204905060018216806200026d57607f821691505b60208210810362000283576200028262000228565b5b50919050565b5f819050815f5260205f209050919050565b5f6020601f8301049050919050565b5f82821b905092915050565b5f60088302620002e77fffffffffffffffffffffffffffffffffffffffffffffffffffffffffffffffff82620002aa565b620002f38683620002aa565b95508019841693508086168417925050509392505050565b5f819050919050565b5f819050919050565b5f6200033d6200033762000331846200030b565b62000314565b6200030b565b9050919050565b5f819050919050565b62000358836200031d565b62000370620003678262000344565b848454620002b6565b825550505050565b5f90565b6200038662000378565b620003938184846200034d565b505050565b5b81811015620003ba57620003ae5f826200037c565b60018101905062000399565b5050565b601f8211156200040957620003d38162000289565b620003de846200029b565b81016020851015620003ee578190505b62000406620003fd856200029b565b83018262000398565b50505b505050565b5f82821c905092915050565b5f6200042b5f19846008026200040e565b1980831691505092915050565b5f6200044583836200041a565b9150826002028217905092915050565b6200046082620001f1565b67ffffffffffffffff8111156200047c576200047b620001fb565b5b62000488825462000255565b62000495828285620003be565b5f60209050601f831160018114620004cb575f8415620004b6578287015190505b620004c2858262000438565b86555062000531565b601f198416620004db8662000289565b5f5b828110156200050457848901518255600182019150602085019450602081019050620004dd565b8683101562000524578489015162000520601f8916826200041a565b8355505b6001600288020188555050505b505050505050565b5f73ffffffffffffffffffffffffffffffffffffffff82169050919050565b5f620005648262000539565b9050919050565b620005768162000558565b82525050565b5f602082019050620005915f8301846200056b565b92915050565b61285780620005a55f395ff3fe608060405234801561000f575f80fd5b506004361061011f575f3560e01c806375794a3c116100ab578063b82539671161006f578063b825396714610308578063b88d4fde14610338578063c87b56dd14610354578063e985e9c514610384578063f2fde38b146103b45761011f565b806375794a3c1461025f57806383c4840d1461027d5780638da5cb5b146102b057806395d89b41146102ce578063a22cb465146102ec5761011f565b806323b872dd116100f257806323b872dd146101bd57806342842e0e146101d95780636352211e146101f557806370a0823114610225578063715018a6146102555761011f565b806301ffc9a71461012357806306fdde0314610153578063081812fc14610171578063095ea7b3146101a1575b5f80fd5b61013d60048036038101906101389190611c7c565b6103d0565b60405161014a9190611cc1565b60405180910390f35b61015b6104b1565b6040516101689190611d64565b60405180910390f35b61018b60048036038101906101869190611db7565b610540565b6040516101989190611e21565b60405180910390f35b6101bb60048036038101906101b69190611e64565b61055b565b005b6101d760048036038101906101d29190611ea2565b610571565b005b6101f360048036038101906101ee9190611ea2565b610670565b005b61020f600480360381019061020a9190611db7565b61068f565b60405161021c9190611e21565b60405180910390f35b61023f600480360381019061023a9190611ef2565b6106a0565b60405161024c9190611f2c565b60405180910390f35b61025d610756565b005b610267610769565b6040516102749190611f2c565b60405180910390f35b61029760048036038101906102929190611db7565b61076f565b6040516102a79493929190611f45565b60405180910390f35b6102b861092d565b6040516102c59190611e21565b60405180910390f35b6102d6610955565b6040516102e39190611d64565b60405180910390f35b61030660048036038101906103019190611fc7565b6109e5565b005b610322600480360381019061031d9190612066565b6109fb565b60405161032f9190611f2c565b60405180910390f35b610352600480360381019061034d9190612265565b610b7f565b005b61036e60048036038101906103699190611db7565b610ba4565b60405161037b9190611d64565b60405180910390f35b61039e600480360381019061039991906122e5565b610c0a565b6040516103ab9190611cc1565b60405180910390f35b6103ce60048036038101906103c99190611ef2565b610c98565b005b5f7f80ac58cd000000000000000000000000000000000000000000000000000000007bffffffffffffffffffffffffffffffffffffffffffffffffffffffff1916827bffffffffffffffffffffffffffffffffffffffffffffffffffffffff1916148061049a57507f5b5e139f000000000000000000000000000000000000000000000000000000007bffffffffffffffffffffffffffffffffffffffffffffffffffffffff1916827bffffffffffffffffffffffffffffffffffffffffffffffffffffffff1916145b806104aa57506104a982610d1c565b5b9050919050565b60605f80546104bf90612350565b80601f01602080910402602001604051908101604052809291908181526020018280546104eb90612350565b80156105365780601f1061050d57610100808354040283529160200191610536565b820191905f5260205f20905b81548152906001019060200180831161051957829003601f168201915b5050505050905090565b5f61054a82610d85565b5061055482610e0b565b9050919050565b61056d8282610568610e44565b610e4b565b5050565b5f73ffffffffffffffffffffffffffffffffffffffff168273ffffffffffffffffffffffffffffffffffffffff16036105e1575f6040517f64a0ae920000000000000000000000000000000000000000000000000000000081526004016105d89190611e21565b60405180910390fd5b5f6105f483836105ef610e44565b610e5d565b90508373ffffffffffffffffffffffffffffffffffffffff168173ffffffffffffffffffffffffffffffffffffffff161461066a578382826040517f64283d7b00000000000000000000000000000000000000000000000000000000815260040161066193929190612380565b60405180910390fd5b50505050565b61068a83838360405180602001604052805f815250610b7f565b505050565b5f61069982610d85565b9050919050565b5f8073ffffffffffffffffffffffffffffffffffffffff168273ffffffffffffffffffffffffffffffffffffffff1603610711575f6040517f89c62b640000000000000000000000000000000000000000000000000000000081526004016107089190611e21565b60405180910390fd5b60035f8373ffffffffffffffffffffffffffffffffffffffff1673ffffffffffffffffffffffffffffffffffffffff1681526020019081526020015f20549050919050565b61075e611068565b6107675f6110ef565b565b60075481565b6008602052805f5260405f205f91509050805f01805461078e90612350565b80601f01602080910402602001604051908101604052809291908181526020018280546107ba90612350565b80156108055780601f106107dc57610100808354040283529160200191610805565b820191905f5260205f20905b8154815290600101906020018083116107e857829003601f168201915b50505050509080600101805461081a90612350565b80601f016020809104026020016040519081016040528092919081815260200182805461084690612350565b80156108915780601f1061086857610100808354040283529160200191610891565b820191905f5260205f20905b81548152906001019060200180831161087457829003601f168201915b5050505050908060020180546108a690612350565b80601f01602080910402602001604051908101604052809291908181526020018280546108d290612350565b801561091d5780601f106108f45761010080835404028352916020019161091d565b820191905f5260205f20905b81548152906001019060200180831161090057829003601f168201915b5050505050908060030154905084565b5f60065f9054906101000a900473ffffffffffffffffffffffffffffffffffffffff16905090565b60606001805461096490612350565b80601f016020809104026020016040519081016040528092919081815260200182805461099090612350565b80156109db5780601f106109b2576101008083540402835291602001916109db565b820191905f5260205f20905b8154815290600101906020018083116109be57829003601f168201915b5050505050905090565b6109f76109f0610e44565b83836111b2565b5050565b5f610a04611068565b5f60075f815480929190610a17906123e2565b919050559050610a278a8261138b565b60405180608001604052808a8a8080601f0160208091040260200160405190810160405280939291908181526020018383808284375f81840152601f19601f82011690508083019250505050505050815260200188888080601f0160208091040260200160405190810160405280939291908181526020018383808284375f81840152601f19601f82011690508083019250505050505050815260200186868080601f0160208091040260200160405190810160405280939291908181526020018383808284375f81840152601f19601f8201169050808301925050505050505081526020018481525060085f8381526020019081526020015f205f820151815f019081610b3591906125c6565b506020820151816001019081610b4b91906125c6565b506040820151816002019081610b6191906125c6565b50606082015181600301559050508091505098975050505050505050565b610b8a848484610571565b610b9e610b95610e44565b858585856113a8565b50505050565b6060610baf82610d85565b505f610bb9611554565b90505f815111610bd75760405180602001604052805f815250610c02565b80610be18461156a565b604051602001610bf29291906126cf565b6040516020818303038152906040525b915050919050565b5f60055f8473ffffffffffffffffffffffffffffffffffffffff1673ffffffffffffffffffffffffffffffffffffffff1681526020019081526020015f205f8373ffffffffffffffffffffffffffffffffffffffff1673ffffffffffffffffffffffffffffffffffffffff1681526020019081526020015f205f9054906101000a900460ff16905092915050565b610ca0611068565b5f73ffffffffffffffffffffffffffffffffffffffff168173ffffffffffffffffffffffffffffffffffffffff1603610d10575f6040517f1e4fbdf7000000000000000000000000000000000000000000000000000000008152600401610d079190611e21565b60405180910390fd5b610d19816110ef565b50565b5f7f01ffc9a7000000000000000000000000000000000000000000000000000000007bffffffffffffffffffffffffffffffffffffffffffffffffffffffff1916827bffffffffffffffffffffffffffffffffffffffffffffffffffffffff1916149050919050565b5f80610d9083611634565b90505f73ffffffffffffffffffffffffffffffffffffffff168173ffffffffffffffffffffffffffffffffffffffff1603610e0257826040517f7e273289000000000000000000000000000000000000000000000000000000008152600401610df99190611f2c565b60405180910390fd5b80915050919050565b5f60045f8381526020019081526020015f205f9054906101000a900473ffffffffffffffffffffffffffffffffffffffff169050919050565b5f33905090565b610e58838383600161166d565b505050565b5f80610e6884611634565b90505f73ffffffffffffffffffffffffffffffffffffffff168373ffffffffffffffffffffffffffffffffffffffff1614610ea957610ea881848661182c565b5b5f73ffffffffffffffffffffffffffffffffffffffff168173ffffffffffffffffffffffffffffffffffffffff1614610f3457610ee85f855f8061166d565b600160035f8373ffffffffffffffffffffffffffffffffffffffff1673ffffffffffffffffffffffffffffffffffffffff1681526020019081526020015f205f82825403925050819055505b5f73ffffffffffffffffffffffffffffffffffffffff168573ffffffffffffffffffffffffffffffffffffffff1614610fb357600160035f8773ffffffffffffffffffffffffffffffffffffffff1673ffffffffffffffffffffffffffffffffffffffff1681526020019081526020015f205f82825401925050819055505b8460025f8681526020019081526020015f205f6101000a81548173ffffffffffffffffffffffffffffffffffffffff021916908373ffffffffffffffffffffffffffffffffffffffff160217905550838573ffffffffffffffffffffffffffffffffffffffff168273ffffffffffffffffffffffffffffffffffffffff167fddf252ad1be2c89b69c2b068fc378daa952ba7f163c4a11628f55a4df523b3ef60405160405180910390a4809150509392505050565b611070610e44565b73ffffffffffffffffffffffffffffffffffffffff1661108e61092d565b73ffffffffffffffffffffffffffffffffffffffff16146110ed576110b1610e44565b6040517f118cdaa70000000000000000000000000000000000000000000000000000000081526004016110e49190611e21565b60405180910390fd5b565b5f60065f9054906101000a900473ffffffffffffffffffffffffffffffffffffffff1690508160065f6101000a81548173ffffffffffffffffffffffffffffffffffffffff021916908373ffffffffffffffffffffffffffffffffffffffff1602179055508173ffffffffffffffffffffffffffffffffffffffff168173ffffffffffffffffffffffffffffffffffffffff167f8be0079c531659141344cd1fd0a4f28419497f9722a3daafe3b4186f6b6457e060405160405180910390a35050565b5f73ffffffffffffffffffffffffffffffffffffffff168373ffffffffffffffffffffffffffffffffffffffff1603611222575f6040517fa9fbf51f0000000000000000000000000000000000000000000000000000000081526004016112199190611e21565b60405180910390fd5b5f73ffffffffffffffffffffffffffffffffffffffff168273ffffffffffffffffffffffffffffffffffffffff160361129257816040517f5b08ba180000000000000000000000000000000000000000000000000000000081526004016112899190611e21565b60405180910390fd5b8060055f8573ffffffffffffffffffffffffffffffffffffffff1673ffffffffffffffffffffffffffffffffffffffff1681526020019081526020015f205f8473ffffffffffffffffffffffffffffffffffffffff1673ffffffffffffffffffffffffffffffffffffffff1681526020019081526020015f205f6101000a81548160ff0219169083151502179055508173ffffffffffffffffffffffffffffffffffffffff168373ffffffffffffffffffffffffffffffffffffffff167f17307eab39ab6107e8899845ad3d59bd9653f200f220920489ca2b5937696c318360405161137e9190611cc1565b60405180910390a3505050565b6113a4828260405180602001604052805f8152506118ef565b5050565b5f8373ffffffffffffffffffffffffffffffffffffffff163b111561154d578273ffffffffffffffffffffffffffffffffffffffff1663150b7a02868685856040518563ffffffff1660e01b81526004016114069493929190612744565b6020604051808303815f875af192505050801561144157506040513d601f19601f8201168201806040525081019061143e91906127a2565b60015b6114c2573d805f811461146f576040519150601f19603f3d011682016040523d82523d5f602084013e611474565b606091505b505f8151036114ba57836040517f64a0ae920000000000000000000000000000000000000000000000000000000081526004016114b19190611e21565b60405180910390fd5b805160208201fd5b63150b7a0260e01b7bffffffffffffffffffffffffffffffffffffffffffffffffffffffff1916817bffffffffffffffffffffffffffffffffffffffffffffffffffffffff19161461154b57836040517f64a0ae920000000000000000000000000000000000000000000000000000000081526004016115429190611e21565b60405180910390fd5b505b5050505050565b606060405180602001604052805f815250905090565b60605f600161157884611912565b0190505f8167ffffffffffffffff81111561159657611595612141565b5b6040519080825280601f01601f1916602001820160405280156115c85781602001600182028036833780820191505090505b5090505f82602083010190505b600115611629578080600190039150507f3031323334353637383961626364656600000000000000000000000000000000600a86061a8153600a858161161e5761161d6127cd565b5b0494505f85036115d5575b819350505050919050565b5f60025f8381526020019081526020015f205f9054906101000a900473ffffffffffffffffffffffffffffffffffffffff169050919050565b80806116a557505f73ffffffffffffffffffffffffffffffffffffffff168273ffffffffffffffffffffffffffffffffffffffff1614155b156117d7575f6116b484610d85565b90505f73ffffffffffffffffffffffffffffffffffffffff168373ffffffffffffffffffffffffffffffffffffffff161415801561171e57508273ffffffffffffffffffffffffffffffffffffffff168173ffffffffffffffffffffffffffffffffffffffff1614155b8015611731575061172f8184610c0a565b155b1561177357826040517fa9fbf51f00000000000000000000000000000000000000000000000000000000815260040161176a9190611e21565b60405180910390fd5b81156117d557838573ffffffffffffffffffffffffffffffffffffffff168273ffffffffffffffffffffffffffffffffffffffff167f8c5be1e5ebec7d5bd14f71427d1e84f3dd0314c0f7b2291e5b200ac8c7c3b92560405160405180910390a45b505b8360045f8581526020019081526020015f205f6101000a81548173ffffffffffffffffffffffffffffffffffffffff021916908373ffffffffffffffffffffffffffffffffffffffff16021790555050505050565b611837838383611a63565b6118ea575f73ffffffffffffffffffffffffffffffffffffffff168373ffffffffffffffffffffffffffffffffffffffff16036118ab57806040517f7e2732890000000000000000000000000000000000000000000000000000000081526004016118a29190611f2c565b60405180910390fd5b81816040517f177e802f0000000000000000000000000000000000000000000000000000000081526004016118e19291906127fa565b60405180910390fd5b505050565b6118f98383611b23565b61190d611904610e44565b5f8585856113a8565b505050565b5f805f90507a184f03e93ff9f4daa797ed6e38ed64bf6a1f010000000000000000831061196e577a184f03e93ff9f4daa797ed6e38ed64bf6a1f0100000000000000008381611964576119636127cd565b5b0492506040810190505b6d04ee2d6d415b85acef810000000083106119ab576d04ee2d6d415b85acef810000000083816119a1576119a06127cd565b5b0492506020810190505b662386f26fc1000083106119da57662386f26fc1000083816119d0576119cf6127cd565b5b0492506010810190505b6305f5e1008310611a03576305f5e10083816119f9576119f86127cd565b5b0492506008810190505b6127108310611a28576127108381611a1e57611a1d6127cd565b5b0492506004810190505b60648310611a4b5760648381611a4157611a406127cd565b5b0492506002810190505b600a8310611a5a576001810190505b80915050919050565b5f8073ffffffffffffffffffffffffffffffffffffffff168373ffffffffffffffffffffffffffffffffffffffff1614158015611b1a57508273ffffffffffffffffffffffffffffffffffffffff168473ffffffffffffffffffffffffffffffffffffffff161480611adb5750611ada8484610c0a565b5b80611b1957508273ffffffffffffffffffffffffffffffffffffffff16611b0183610e0b565b73ffffffffffffffffffffffffffffffffffffffff16145b5b90509392505050565b5f73ffffffffffffffffffffffffffffffffffffffff168273ffffffffffffffffffffffffffffffffffffffff1603611b93575f6040517f64a0ae92000000000000000000000000000000000000000000000000000000008152600401611b8a9190611e21565b60405180910390fd5b5f611b9f83835f610e5d565b90505f73ffffffffffffffffffffffffffffffffffffffff168173ffffffffffffffffffffffffffffffffffffffff1614611c11575f6040517f73c6ac6e000000000000000000000000000000000000000000000000000000008152600401611c089190611e21565b60405180910390fd5b505050565b5f604051905090565b5f80fd5b5f80fd5b5f7fffffffff0000000000000000000000000000000000000000000000000000000082169050919050565b611c5b81611c27565b8114611c65575f80fd5b50565b5f81359050611c7681611c52565b92915050565b5f60208284031215611c9157611c90611c1f565b5b5f611c9e84828501611c68565b91505092915050565b5f8115159050919050565b611cbb81611ca7565b82525050565b5f602082019050611cd45f830184611cb2565b92915050565b5f81519050919050565b5f82825260208201905092915050565b5f5b83811015611d11578082015181840152602081019050611cf6565b5f8484015250505050565b5f601f19601f8301169050919050565b5f611d3682611cda565b611d408185611ce4565b9350611d50818560208601611cf4565b611d5981611d1c565b840191505092915050565b5f6020820190508181035f830152611d7c8184611d2c565b905092915050565b5f819050919050565b611d9681611d84565b8114611da0575f80fd5b50565b5f81359050611db181611d8d565b92915050565b5f60208284031215611dcc57611dcb611c1f565b5b5f611dd984828501611da3565b91505092915050565b5f73ffffffffffffffffffffffffffffffffffffffff82169050919050565b5f611e0b82611de2565b9050919050565b611e1b81611e01565b82525050565b5f602082019050611e345f830184611e12565b92915050565b611e4381611e01565b8114611e4d575f80fd5b50565b5f81359050611e5e81611e3a565b92915050565b5f8060408385031215611e7a57611e79611c1f565b5b5f611e8785828601611e50565b9250506020611e9885828601611da3565b9150509250929050565b5f805f60608486031215611eb957611eb8611c1f565b5b5f611ec686828701611e50565b9350506020611ed786828701611e50565b9250506040611ee886828701611da3565b9150509250925092565b5f60208284031215611f0757611f06611c1f565b5b5f611f1484828501611e50565b91505092915050565b611f2681611d84565b82525050565b5f602082019050611f3f5f830184611f1d565b92915050565b5f6080820190508181035f830152611f5d8187611d2c565b90508181036020830152611f718186611d2c565b90508181036040830152611f858185611d2c565b9050611f946060830184611f1d565b95945050505050565b611fa681611ca7565b8114611fb0575f80fd5b50565b5f81359050611fc181611f9d565b92915050565b5f8060408385031215611fdd57611fdc611c1f565b5b5f611fea85828601611e50565b9250506020611ffb85828601611fb3565b9150509250929050565b5f80fd5b5f80fd5b5f80fd5b5f8083601f84011261202657612025612005565b5b8235905067ffffffffffffffff81111561204357612042612009565b5b60208301915083600182028301111561205f5761205e61200d565b5b9250929050565b5f805f805f805f8060a0898b03121561208257612081611c1f565b5b5f61208f8b828c01611e50565b985050602089013567ffffffffffffffff8111156120b0576120af611c23565b5b6120bc8b828c01612011565b9750975050604089013567ffffffffffffffff8111156120df576120de611c23565b5b6120eb8b828c01612011565b9550955050606089013567ffffffffffffffff81111561210e5761210d611c23565b5b61211a8b828c01612011565b9350935050608061212d8b828c01611da3565b9150509295985092959890939650565b5f80fd5b7f4e487b71000000000000000000000000000000000000000000000000000000005f52604160045260245ffd5b61217782611d1c565b810181811067ffffffffffffffff8211171561219657612195612141565b5b80604052505050565b5f6121a8611c16565b90506121b4828261216e565b919050565b5f67ffffffffffffffff8211156121d3576121d2612141565b5b6121dc82611d1c565b9050602081019050919050565b828183375f83830152505050565b5f612209612204846121b9565b61219f565b9050828152602081018484840111156122255761222461213d565b5b6122308482856121e9565b509392505050565b5f82601f83011261224c5761224b612005565b5b813561225c8482602086016121f7565b91505092915050565b5f805f806080858703121561227d5761227c611c1f565b5b5f61228a87828801611e50565b945050602061229b87828801611e50565b93505060406122ac87828801611da3565b925050606085013567ffffffffffffffff8111156122cd576122cc611c23565b5b6122d987828801612238565b91505092959194509250565b5f80604083850312156122fb576122fa611c1f565b5b5f61230885828601611e50565b925050602061231985828601611e50565b9150509250929050565b7f4e487b71000000000000000000000000000000000000000000000000000000005f52602260045260245ffd5b5f600282049050600182168061236757607f821691505b60208210810361237a57612379612323565b5b50919050565b5f6060820190506123935f830186611e12565b6123a06020830185611f1d565b6123ad6040830184611e12565b949350505050565b7f4e487b71000000000000000000000000000000000000000000000000000000005f52601160045260245ffd5b5f6123ec82611d84565b91507fffffffffffffffffffffffffffffffffffffffffffffffffffffffffffffffff820361241e5761241d6123b5565b5b600182019050919050565b5f819050815f5260205f209050919050565b5f6020601f8301049050919050565b5f82821b905092915050565b5f600883026124857fffffffffffffffffffffffffffffffffffffffffffffffffffffffffffffffff8261244a565b61248f868361244a565b95508019841693508086168417925050509392505050565b5f819050919050565b5f6124ca6124c56124c084611d84565b6124a7565b611d84565b9050919050565b5f819050919050565b6124e3836124b0565b6124f76124ef826124d1565b848454612456565b825550505050565b5f90565b61250b6124ff565b6125168184846124da565b505050565b5b818110156125395761252e5f82612503565b60018101905061251c565b5050565b601f82111561257e5761254f81612429565b6125588461243b565b81016020851015612567578190505b61257b6125738561243b565b83018261251b565b50505b505050565b5f82821c905092915050565b5f61259e5f1984600802612583565b1980831691505092915050565b5f6125b6838361258f565b9150826002028217905092915050565b6125cf82611cda565b67ffffffffffffffff8111156125e8576125e7612141565b5b6125f28254612350565b6125fd82828561253d565b5f60209050601f83116001811461262e575f841561261c578287015190505b61262685826125ab565b86555061268d565b601f19841661263c86612429565b5f5b828110156126635784890151825560018201915060208501945060208101905061263e565b86831015612680578489015161267c601f89168261258f565b8355505b6001600288020188555050505b505050505050565b5f81905092915050565b5f6126a982611cda565b6126b38185612695565b93506126c3818560208601611cf4565b80840191505092915050565b5f6126da828561269f565b91506126e6828461269f565b91508190509392505050565b5f81519050919050565b5f82825260208201905092915050565b5f612716826126f2565b61272081856126fc565b9350612730818560208601611cf4565b61273981611d1c565b840191505092915050565b5f6080820190506127575f830187611e12565b6127646020830186611e12565b6127716040830185611f1d565b8181036060830152612783818461270c565b905095945050505050565b5f8151905061279c81611c52565b92915050565b5f602082840312156127b7576127b6611c1f565b5b5f6127c48482850161278e565b91505092915050565b7f4e487b71000000000000000000000000000000000000000000000000000000005f52601260045260245ffd5b5f60408201905061280d5f830185611e12565b61281a6020830184611f1d565b939250505056fea26469706673582212202a24c55c10707915ddbe2b86451fff24fc45371ec161d41573c25c2a2efcc4e264736f6c63430008180033",
  "linkReferences": {},
  "deployedLinkReferences": {}
}