{
  "_format": "hh-sol-artifact-1",
  "contractName": "Registry",
  "sourceName": "contracts/Registry.sol",
  "abi": [
    {
      "inputs": [],
      "stateMutability": "nonpayable",
      "type": "constructor"
    },
    {
      "anonymous": false,
      "inputs": [
        {
          "indexed": true,
          "internalType": "uint256",
          "name": "plantationId",
          "type": "uint256"
        }
      ],
      "name": "PlantationApproved",
      "type": "event"
    },
    {
      "anonymous": false,
      "inputs": [
        {
          "indexed": true,
          "internalType": "uint256",
          "name": "plantationId",
          "type": "uint256"
        },
        {
          "indexed": false,
          "internalType": "string",
          "name": "ipfsHash",
          "type": "string"
        },
        {
          "indexed": true,
          "internalType": "address",
          "name": "ngoAddress",
          "type": "address"
        }
      ],
      "name": "PlantationRegistered",
      "type": "event"
    },
    {
      "inputs": [],
      "name": "admin",
      "outputs": [
        {
          "internalType": "address",
          "name": "",
          "type": "address"
        }
      ],
      "stateMutability": "view",
      "type": "function"
    },
    {
      "inputs": [
        {
          "internalType": "uint256",
          "name": "plantationId",
          "type": "uint256"
        }
      ],
      "name": "approvePlantation",
      "outputs": [],
      "stateMutability": "nonpayable",
      "type": "function"
    },
    {
      "inputs": [
        {
          "internalType": "uint256",
          "name": "plantationId",
          "type": "uint256"
        }
      ],
      "name": "getPlantation",
      "outputs": [
        {
          "components": [
            {
              "internalType": "uint256",
              "name": "plantationId",
              "type": "uint256"
            },
            {
              "internalType": "string",
              "name": "ipfsHash",
              "type": "string"
            },
            {
              "internalType": "address",
              "name": "ngoAddress",
              "type": "address"
            },
            {
              "internalType": "enum Registry.Status",
              "name": "status",
              "type": "uint8"
            },
            {
              "internalType": "uint256",
              "name": "timestamp",
              "type": "uint256"
            }
          ],
          "internalType": "struct Registry.PlantationRecord",
          "name": "",
          "type": "tuple"
        }
      ],
      "stateMutability": "view",
      "type": "function"
    },
    {
      "inputs": [
        {
          "internalType": "uint256",
          "name": "",
          "type": "uint256"
        }
      ],
      "name": "plantations",
      "outputs": [
        {
          "internalType": "uint256",
          "name": "plantationId",
          "type": "uint256"
        },
        {
          "internalType": "string",
          "name": "ipfsHash",
          "type": "string"
        },
        {
          "internalType": "address",
          "name": "ngoAddress",
          "type": "address"
        },
        {
          "internalType": "enum Registry.Status",
          "name": "status",
          "type": "uint8"
        },
        {
          "internalType": "uint256",
          "name": "timestamp",
          "type": "uint256"
        }
      ],
      "stateMutability": "view",
      "type": "function"
    },
    {
      "inputs": [
        {
          "internalType": "uint256",
          "name": "plantationId",
          "type": "uint256"
        },
        {
          "internalType": "string",
          "name": "ipfsHash",
          "type": "string"
        },
        {
          "internalType": "address",
          "name": "ngoAddress",
          "type": "address"
        }
      ],
      "name": "registerPlantation",
      "outputs": [],
      "stateMutability": "nonpayable",
      "type": "function"
    }
  ],
  "bytecode": "0x608060405234801561000f575f80fd5b50335f806101000a81548173ffffffffffffffffffffffffffffffffffffffff021916908373ffffffffffffffffffffffffffffffffffffffff160217905550610f028061005c5f395ff3fe608060405234801561000f575f80fd5b5060043610610055575f3560e01c80630608196614610059578063583aac2014610075578063c7086f12146100a5578063d305c025146100c1578063f851a440146100f5575b5f80fd5b610073600480360381019061006e91906107e2565b610113565b005b61008f600480360381019061008a9190610853565b61033b565b60405161009c9190610a0c565b60405180910390f35b6100bf60048036038101906100ba9190610853565b610499565b005b6100db60048036038101906100d69190610853565b610592565b6040516100ec959493929190610aa1565b60405180910390f35b6100fd610676565b60405161010a9190610af9565b60405180910390f35b5f8054906101000a900473ffffffffffffffffffffffffffffffffffffffff1673ffffffffffffffffffffffffffffffffffffffff163373ffffffffffffffffffffffffffffffffffffffff16146101a0576040517f08c379a000000000000000000000000000000000000000000000000000000000815260040161019790610b5c565b60405180910390fd5b6040518060a0016040528085815260200184848080601f0160208091040260200160405190810160405280939291908181526020018383808284375f81840152601f19601f8201169050808301925050505050505081526020018273ffffffffffffffffffffffffffffffffffffffff1681526020015f600281111561022957610228610926565b5b81526020014281525060015f8681526020019081526020015f205f820151815f015560208201518160010190816102609190610da1565b506040820151816002015f6101000a81548173ffffffffffffffffffffffffffffffffffffffff021916908373ffffffffffffffffffffffffffffffffffffffff16021790555060608201518160020160146101000a81548160ff021916908360028111156102d2576102d1610926565b5b0217905550608082015181600301559050508073ffffffffffffffffffffffffffffffffffffffff16847f0e1b64dd2881522d5243169df19ed600fd0d1e139c469ebbfa0295de01ae4315858560405161032d929190610eaa565b60405180910390a350505050565b610343610699565b60015f8381526020019081526020015f206040518060a00160405290815f820154815260200160018201805461037890610bd4565b80601f01602080910402602001604051908101604052809291908181526020018280546103a490610bd4565b80156103ef5780601f106103c6576101008083540402835291602001916103ef565b820191905f5260205f20905b8154815290600101906020018083116103d257829003601f168201915b50505050508152602001600282015f9054906101000a900473ffffffffffffffffffffffffffffffffffffffff1673ffffffffffffffffffffffffffffffffffffffff1673ffffffffffffffffffffffffffffffffffffffff1681526020016002820160149054906101000a900460ff16600281111561047257610471610926565b5b600281111561048457610483610926565b5b81526020016003820154815250509050919050565b5f8054906101000a900473ffffffffffffffffffffffffffffffffffffffff1673ffffffffffffffffffffffffffffffffffffffff163373ffffffffffffffffffffffffffffffffffffffff1614610526576040517f08c379a000000000000000000000000000000000000000000000000000000000815260040161051d90610b5c565b60405180910390fd5b6001805f8381526020019081526020015f2060020160146101000a81548160ff0219169083600281111561055d5761055c610926565b5b0217905550807f1a70c79e86b4aeded3e3dc53722b92a78a4bf85d56818cf6dbdc78d86a896d8660405160405180910390a250565b6001602052805f5260405f205f91509050805f0154908060010180546105b790610bd4565b80601f01602080910402602001604051908101604052809291908181526020018280546105e390610bd4565b801561062e5780601f106106055761010080835404028352916020019161062e565b820191905f5260205f20905b81548152906001019060200180831161061157829003601f168201915b505050505090806002015f9054906101000a900473ffffffffffffffffffffffffffffffffffffffff16908060020160149054906101000a900460ff16908060030154905085565b5f8054906101000a900473ffffffffffffffffffffffffffffffffffffffff1681565b6040518060a001604052805f8152602001606081526020015f73ffffffffffffffffffffffffffffffffffffffff1681526020015f60028111156106e0576106df610926565b5b81526020015f81525090565b5f80fd5b5f80fd5b5f819050919050565b610706816106f4565b8114610710575f80fd5b50565b5f81359050610721816106fd565b92915050565b5f80fd5b5f80fd5b5f80fd5b5f8083601f84011261074857610747610727565b5b8235905067ffffffffffffffff8111156107655761076461072b565b5b6020830191508360018202830111156107815761078061072f565b5b9250929050565b5f73ffffffffffffffffffffffffffffffffffffffff82169050919050565b5f6107b182610788565b9050919050565b6107c1816107a7565b81146107cb575f80fd5b50565b5f813590506107dc816107b8565b92915050565b5f805f80606085870312156107fa576107f96106ec565b5b5f61080787828801610713565b945050602085013567ffffffffffffffff811115610828576108276106f0565b5b61083487828801610733565b93509350506040610847878288016107ce565b91505092959194509250565b5f60208284031215610868576108676106ec565b5b5f61087584828501610713565b91505092915050565b610887816106f4565b82525050565b5f81519050919050565b5f82825260208201905092915050565b5f5b838110156108c45780820151818401526020810190506108a9565b5f8484015250505050565b5f601f19601f8301169050919050565b5f6108e98261088d565b6108f38185610897565b93506109038185602086016108a7565b61090c816108cf565b840191505092915050565b610920816107a7565b82525050565b7f4e487b71000000000000000000000000000000000000000000000000000000005f52602160045260245ffd5b6003811061096457610963610926565b5b50565b5f81905061097482610953565b919050565b5f61098382610967565b9050919050565b61099381610979565b82525050565b5f60a083015f8301516109ae5f86018261087e565b50602083015184820360208601526109c682826108df565b91505060408301516109db6040860182610917565b5060608301516109ee606086018261098a565b506080830151610a01608086018261087e565b508091505092915050565b5f6020820190508181035f830152610a248184610999565b905092915050565b610a35816106f4565b82525050565b5f82825260208201905092915050565b5f610a558261088d565b610a5f8185610a3b565b9350610a6f8185602086016108a7565b610a78816108cf565b840191505092915050565b610a8c816107a7565b82525050565b610a9b81610979565b82525050565b5f60a082019050610ab45f830188610a2c565b8181036020830152610ac68187610a4b565b9050610ad56040830186610a83565b610ae26060830185610a92565b610aef6080830184610a2c565b9695505050505050565b5f602082019050610b0c5f830184610a83565b92915050565b7f4f6e6c792061646d696e000000000000000000000000000000000000000000005f82015250565b5f610b46600a83610a3b565b9150610b5182610b12565b602082019050919050565b5f6020820190508181035f830152610b7381610b3a565b9050919050565b7f4e487b71000000000000000000000000000000000000000000000000000000005f52604160045260245ffd5b7f4e487b71000000000000000000000000000000000000000000000000000000005f52602260045260245ffd5b5f6002820490506001821680610beb57607f821691505b602082108103610bfe57610bfd610ba7565b5b50919050565b5f819050815f5260205f209050919050565b5f6020601f8301049050919050565b5f82821b905092915050565b5f60088302610c607fffffffffffffffffffffffffffffffffffffffffffffffffffffffffffffffff82610c25565b610c6a8683610c25565b95508019841693508086168417925050509392505050565b5f819050919050565b5f610ca5610ca0610c9b846106f4565b610c82565b6106f4565b9050919050565b5f819050919050565b610cbe83610c8b565b610cd2610cca82610cac565b848454610c31565b825550505050565b5f90565b610ce6610cda565b610cf1818484610cb5565b505050565b5b81811015610d1457610d095f82610cde565b600181019050610cf7565b5050565b601f821115610d5957610d2a81610c04565b610d3384610c16565b81016020851015610d42578190505b610d56610d4e85610c16565b830182610cf6565b50505b505050565b5f82821c905092915050565b5f610d795f1984600802610d5e565b1980831691505092915050565b5f610d918383610d6a565b9150826002028217905092915050565b610daa8261088d565b67ffffffffffffffff811115610dc357610dc2610b7a565b5b610dcd8254610bd4565b610dd8828285610d18565b5f60209050601f831160018114610e09575f8415610df7578287015190505b610e018582610d86565b865550610e68565b601f198416610e1786610c04565b5f5b82811015610e3e57848901518255600182019150602085019450602081019050610e19565b86831015610e5b5784890151610e57601f891682610d6a565b8355505b6001600288020188555050505b505050505050565b828183375f83830152505050565b5f610e898385610a3b565b9350610e96838584610e70565b610e9f836108cf565b840190509392505050565b5f6020820190508181035f830152610ec3818486610e7e565b9050939250505056fea26469706673582212205f0a195a68c26c0b39148393b5f34bab9f6189a857fd8a78f5d90394a346ec9f64736f6c63430008180033",
  "linkReferences": {},
  "deployedLinkReferences": {}
}